{
  "contractName": "WirebitsToken",
  "abi": [
    {
      "constant": true,
      "inputs": [],
      "name": "totalSupply",
      "outputs": [
        {
          "name": "",
          "type": "uint256"
        }
      ],
      "payable": false,
      "stateMutability": "view",
      "type": "function"
    },
    {
      "inputs": [],
      "payable": false,
      "stateMutability": "nonpayable",
      "type": "constructor"
    }
  ],
  "bytecode": "0x608060405234801561001057600080fd5b50620f4240600081905550609e806100296000396000f300608060405260043610603f576000357c0100000000000000000000000000000000000000000000000000000000900463ffffffff16806318160ddd146044575b600080fd5b348015604f57600080fd5b506056606c565b6040518082815260200191505060405180910390f35b600054815600a165627a7a72305820ea23fb247d8439667deb89b358b96b4fb2cac3466214c8dd04adff54901ddd9f0029",
  "source": "/*\r\nImplements EIP20 token standard: https://github.com/ethereum/EIPs/blob/master/EIPS/eip-20.md\r\n.\r\n\r\nWith thanks to Dapp University\r\n\r\nhttps://youtu.be/XdKv5uwEk5A\r\n\r\n*/\r\n\r\n\r\npragma solidity ^0.4.23;\r\n\r\ncontract WirebitsToken {\r\n  uint256 public totalSupply;\r\n\r\n  function WirebitsToken () {\r\n    totalSupply = 1000000;\r\n  }\r\n}\r\n",
  "sourcePath": "C:\\Users\\Moss\\Documents\\WirebitsConsole\\contracts\\WirebitsToken.sol",
  "compiler": {
    "name": "solc",
    "version": "0.4.24+commit.e67f0147.Emscripten.clang"
  },
  "schemaVersion": "2.0.1",
  "updatedAt": "2018-06-23T20:26:09.227Z"
}